:020000040800F2
:1000000000500020690D0008FD0C0008FF0C0008DE
:10001000010D0008030D0008050D00080000000098
:10002000000000000000000000000000070D0008B4
:10003000090D0008000000000B0D00080D0D000860
:10004000B10D0008B10D0008B10D0008B10D000898
:10005000B10D0008B10D0008B10D0008B10D000888
:10006000B10D0008B10D0008B10D0008B10D000878
:10007000B10D0008B10D0008B10D0008B10D000868
:10008000B10D0008B10D0008B10D0008B10D000858
:10009000B10D0008B10D0008B10D0008B10D000848
:1000A000B10D0008110D0008B10D0008B10D0008D8
:1000B000B10D0008B10D0008B10D0008B10D000828
:1000C000B10D0008B10D0008B10D0008B10D000818
:1000D000B10D0008B10D0008B10D0008B10D000808
:1000E000B10D0008B10D0008B10D000800000000BE
:1000F0000000000000000000000000000000000000
:0C01000000000000000000005FF808F1A3
:10010C0010B5054C237833B9044B13B10448AFF345
:10011C0000800123237010BD0C00002000000000A3
:10012C000C0E000808B5034B1BB103490348AFF391
:10013C00008008BD00000000100000200C0E00081C
:10014C00074A08B51368032043F01003136000F04E
:10015C001BF8002000F090FD00F06CFD002008BDA5
:10016C0000200240034A044B11681B780B441360B7
:10017C00704700BF2800002000000020014B1868C9
:10018C00704700BF28000020074A0002D36800F423
:10019C00E06023F4E0631B041B0C43F0BF6343F4E7
:1001AC0000330343D360704700ED00E0174B30B5CC
:1001BC00DC68C4F30224C4F10703251D042B28BFFB
:1001CC000423062D4FF0010598BF002405FA03F314
:1001DC0003F1FF3388BF033C1940A14005FA04F436
:1001EC00013C2240002842EA01024FEA0212A9BF58
:1001FC0000F16040064BD2B200F56140BBBF00F08D
:10020C000F00D2B280F800231A5430BD00ED00E08C
:10021C0014ED00E0002808DB0123420900F01F0068
:10022C0003FA00F0014B43F82200704700E100E0B4
:10023C002DE9F74F00242646664BDFF8A8E1DFF8DE
:10024C00A8C10A6832FA06F502D103B0BDE8F08FF6
:10025C004FF0010808FA06F802EA080290457FD12F
:10026C004D68122D00F0AA8000F28380022D00F060
:10027C00A28077D8002D00F08980012D00F09980A4
:10028C004FF00F09FF2A93BF824606F18045083DC7
:10029C00D0F800B092BFB500D0F804B0AD0009FAA8
:1002AC0005F82BEA080804FA05F588BF00F1040AE2
:1002BC0048EA0505CAF80050D1F804A01AF0805F8E
:1002CC004ED0454D444FAD6926F0030845F001056D
:1002DC00BD61BD6908F1804805F00105019508F57F
:1002EC00803806F0030B019D4FEA8B0BD8F80850B1
:1002FC0009FA0BF925EA0909384DA84263D005F52E
:10030C008065A84261D005F58065A8425FD005F5EF
:10031C008065A8420CBF0325042505FA0BF545EAB8
:10032C000905C8F808501D681AF4803F14BF15431E
:10033C0095431D605D681AF4003F14BF1543954347
:10034C005D609D681AF4801F14BF154395439D6032
:10035C00DD681AF4001F14BF2A4325EA0202DA6092
:10036C0001366EE7032D22D0112D89D1CC680434CF
:10037C0086E71B4FBD4209D012D8DFF870904D456F
:10038C0004D009F580394D457FF47AAF8C68C4B13F
:10039C00012C0CBFC0F81080C0F8148008246FE743
:1003AC007545F3D06545F1D0DFF84490EBE70024B8
:1003BC0066E7CC6864E7CC68083461E7CC680C3439
:1003CC005EE704245CE70025A7E70125A5E70225E5
:1003DC00A3E700BF000401400010024000080140E8
:1003EC00000021100000311000003210000011102C
:1003FC00000022100AB1016170470904FBE70000FC
:10040C002DE9F341054608B901203CE00368DB0700
:10041C0010D42B689F075DD42B68190700F19480CA
:10042C002B685A0700F1BE80E869002840F02C8147
:10043C00002028E08F4C636803F00C03042B07D0DA
:10044C00636803F00C03082B09D16368DE0306D53F
:10045C0023689C03DDD56B68002BDAD1D4E76B687D
:10046C00B3F5803F12D1236843F480332360FFF748
:10047C0085FE064623689803CBD4FFF77FFE801BCE
:10048C006428F7D9032002B0BDE8F0819BB923683A
:10049C0023F480332360236823F480232360FFF745
:1004AC006DFE064623689903B3D5FFF767FE801BE4
:1004BC006428F7D9E6E7B3F5A02F236803D143F4FA
:1004CC0080232360CFE723F480332360236823F455
:1004DC008023CBE7674C636813F00C0F07D063687D
:1004EC0003F00C03082B10D16368DA030DD42368D6
:1004FC009B0702D52B69012B86D123686A6923F0EF
:10050C00F80343EAC203236086E72A695A4B6AB1AF
:10051C0001221A60FFF732FE064623689F07ECD4CF
:10052C00FFF72CFE801B0228F7D9ABE71A60FFF708
:10053C0025FE0646236898077FF56EAFFFF71EFE73
:10054C00801B0228F6D99DE7AA694A4C4B4BDAB1BD
:10055C0001221A60FFF712FE0646636A9B070DD54F
:10056C004FF4FA52464B1B68B3FBF2F3019300BFF6
:10057C00019B5A1E0192002BF9D151E7FFF7FEFDAA
:10058C00801B0228E9D97DE71A60FFF7F7FD0646C4
:10059C00636A9F077FF544AFFFF7F0FD801B0228CD
:1005AC00F6D96FE7334CE369D80024D40127E3690B
:1005BC0043F08053E361E36903F080530093009BA5
:1005CC00304E3368D90518D5EB68012B26D1236A38
:1005DC0043F001032362FFF7D1FD41F288368046D8
:1005EC00236A9B073FD5002F3FF41EAFE36923F02E
:1005FC008053E36118E70027E2E7336843F4807324
:10060C003360FFF7BBFD80463368DA05DCD4FFF7B7
:10061C00B5FDA0EB08006428F6D933E7ABB9236A23
:10062C0041F2883823F001032362236A23F0040388
:10063C002362FFF7A3FD0646236A9807D3D5FFF77D
:10064C009DFD801B4045F7D91CE7052B236A03D180
:10065C0043F004032362BAE723F001032362236A05
:10066C0023F00403B6E7FFF789FDA0EB0800B042C6
:10067C00B6D907E700100240000042428004424213
:10068C0008000020007000402A4B5A681C4602F0FB
:10069C000C02082A3DD00023274E022833602BD1B0
:1006AC00FFF76CFD0746236899011FD42B6AB3F53D
:1006BC00803F05D16268A96822F400320A43626067
:1006CC00696A62680B4322F474121343636001235A
:1006DC003360FFF753FD054623689A013FF5A8AE3A
:1006EC00FFF74CFD401B0228F6D9CBE6FFF746FD81
:1006FC00C01B0228D7D9C5E6FFF740FD0546236885
:10070C009B017FF595AEFFF739FD401B0228F6D90A
:10071C00B8E601283FF4B7AE58682B6A00F4803273
:10072C009A427FF471AE6B6A00F47010C01A18BF55
:10073C000120A8E6001002406000424230B5194B7F
:10074C0087B002AC03F110052246186859680833CB
:10075C0003C2AB421446F7D101238DF804300223B7
:10076C0011498DF805304B6803F00C02082A17D19B
:10077C00C3F3834206A80244DB0312F8102C0CD5F9
:10078C004B680A48C3F34043504306AA134413F87A
:10079C00143CB0FBF3F007B030BD05485043FAE70A
:1007AC000248F8E7240E00080010024000127A00FC
:1007BC0000093D002DE9F0410D46044610B9012019
:1007CC00BDE8F081454A136803F007038B4229D337
:1007DC0021688E0731D4CA0744D4404A136803F009
:1007EC0007039D4267D322683D4D12F0040F6ED172
:1007FC00130706D56B68226923F4605343EAC203DE
:10080C006B60FFF79BFF6B68364AC3F30313D35C33
:10081C00D840354B1860354B186800F02DFA002085
:10082C00BDE8F081136823F007030B4313601368D2
:10083C0003F007039942C2D1CAE7294B11F0040F08
:10084C001EBF5A6842F4E0625A60080742BF5A68F9
:10085C0042F460525A605A68A06822F0F0020243D7
:10086C005A60B8E762681E4E012A33681BD113F434
:10087C00003FA4D0736841F2883823F0030313437C
:10088C007360FFF77BFC07467368626803F00C0328
:10089C00B3EB820FA1D0FFF771FCC01B4045F3D91D
:1008AC000320BDE8F081022A02D113F0007FE0E7BB
:1008BC0013F0020FDDE7136823F007032B431360DB
:1008CC00136803F007039D427FF479AF8BE76B68E5
:1008DC00E16823F4E0630B436B6089E7002002407E
:1008EC0000100240340E0008080000200400002014
:1008FC00044B054A5B68C3F3C223D35C034A1068FC
:10090C00D840704700100240440E00080800002038
:10091C000F2303600B4B5A6802F0030242605A68C3
:10092C0002F0F00282605A6802F4E062C2605B6816
:10093C00DB0803F4E0630361034B1B6803F007035C
:10094C000B607047001002400020024070470368A3
:10095C000020DA6842F00102DA609A6802F00702BD
:10096C00062A1EBF1A6842F001021A6070477047CF
:10097C00704770477047036810B51A6904469107B1
:10098C000ED5DA6892070BD56FF002021A610122BC
:10099C009B6902779B0777D0FFF7EAFF0023237749
:1009AC0023681A69500710D5DA6851070DD56FF016
:1009BC0004021A6102229B69227713F4407F2046BD
:1009CC0068D0FFF7D5FF0023237723681A69120735
:1009DC000FD5DA6810070CD56FF008021A610422E3
:1009EC00DB692277990720465AD0FFF7C1FF002315
:1009FC00237723681A69D20610D5DA68D0060DD58C
:100A0C006FF010021A610822DB69227713F4407F21
:100A1C0020464BD0FFF7ACFF0023237723681A69DD
:100A2C00D10708D5DA68D20705D56FF00102204648
:100A3C001A6100F0F5F823681A69100608D5DA680F
:100A4C00110605D56FF0800220461A6100F089F876
:100A5C0023681A69520608D5DA68500605D56FF076
:100A6C00400220461A61FFF785FF23681A69910638
:100A7C0022D5DA6892061FD56FF020022046BDE819
:100A8C0010401A6100F06CB8FFF771FF2046FFF7B9
:100A9C0070FF83E7FFF76BFF2046FFF76AFF92E7D3
:100AAC00FFF765FF2046FFF764FFA0E7FFF75FFF46
:100ABC002046FFF75EFFAFE710BD00001A4A03683F
:100ACC0090420AD0B0F1804F07D0A2F594329042F8
:100ADC0003D002F58062904215D14A6823F070036E
:100AEC001343114A90420AD0B0F1804F07D0A2F5BF
:100AFC009432904203D002F58062904203D1CA68CE
:100B0C0023F4407313434A6923F0800313430360B7
:100B1C008B68C3620B688362034B984204BF0B69FA
:100B2C000363012343617047002C014010B5044658
:100B3C00A0B190F83D3003F0FF021BB980F83C20C7
:100B4C00FFF704FF0223206884F83D30211DFFF7D6
:100B5C00B5FF0123002084F83D3010BD012010BDED
:100B6C007047704710B586B01022002102A800F023
:100B7C003FF9144B144C9A69204642F010029A61CA
:100B8C009A694FF4005102F010020092009A9A698F
:100B9C0042F004029A619B69002203F00403019362
:100BAC00019BFFF727FC4FF400530293012303939F
:100BBC0000230493022302A920460593FFF738FB78
:100BCC0006B010BD001002400010014000B591B0FD
:100BDC002822002106A800F00BF91422002101A8FC
:100BEC0000F006F90223069301230A93102306A8AA
:100BFC000B93FFF705FC00210F2301A80193029131
:100C0C00039104910591FFF7D5FD11B05DF804FB3C
:100C1C0008B5FFF795FAFFF7D9FFFFF7A3FFFEE73B
:100C2C000268034B9A4201D1FFF79CBA704700BF90
:100C3C00002C01400E4B82B09A6942F001029A617D
:100C4C009A6902F001020092009ADA6942F080522D
:100C5C00DA61DB69074A03F080530193019B536807
:100C6C0023F0E06343F00073536002B0704700BFA1
:100C7C00001002400000014010B5014688B000226F
:100C8C001920FFF793FA1920FFF7C4FA144B01A9A6
:100C9C009A6903A842F400629A619B69114C03F4AF
:100CAC0000630293029BFFF733FEFFF721FE0E4B0E
:100CBC00236040F2E733E3600C4BB0FBF3F000230E
:100CCC000138606020462361A360FFF72FFF20B935
:100CDC002046FFF73CFE08B010BD0120FBE700BF2B
:100CEC00001002402C000020002C014040420F005C
:100CFC007047FEE7FEE7FEE7FEE770477047704778
:100D0C00704700000148FFF736BE00BF2C000020E2
:100D1C000F4B1A6842F001021A6059680D4A0A40DA
:100D2C005A601A6822F0847222F480321A601A68AF
:100D3C0022F480221A605A6822F4FE025A604FF4A0
:100D4C001F029A604FF00062034B9A60704700BF1D
:100D5C00001002400000FFF800ED00E0002103E06D
:100D6C000B4B5B58435004310A480B4B42189A42C8
:100D7C00F6D30A4A02E0002342F8043B084B9A429D
:100D8C00F9D3FFF7C5FF00F00FF8FFF741FF7047ED
:100D9C00540E0008000000200C0000200C00002065
:100DAC006C000020FEE7000070B500250C4E0D4CC9
:100DBC00A41BA410A54209D100F022F800250A4E6C
:100DCC000A4CA41BA410A54205D170BD56F82530C1
:100DDC0098470135EEE756F8253098470135F2E78C
:100DEC004C0E00084C0E00084C0E0008500E00086B
:100DFC0003460244934200D1704703F8011BF9E704
:100E0C00F8B500BFF8BC08BC9E467047F8B500BFEB
:080E1C00F8BC08BC9E467047BB
:100E240002030405060708090A0B0C0D0E0F101027
:100E34000000000000000000010203040607080986
:080E440000000000010203049C
:040E4C003101000868
:040E50000D01000888
:0C0E540001000000100000000024F40069
:0400000508000D6979
:00000001FF
